:020000040800F2
:1000000060090020F91A0008D11A0008D31A000864
:10001000D51A0008D71A0008D91A000800000000F5
:10002000000000000000000000000000DB1A0008D3
:10003000DD1A000800000000DF1A0008E11A0008BD
:10004000291B00082D1B0008311B0008351B000868
:10005000391B00083D1B0008411B0008451B000818
:10006000491B00084D1B0008511B0008551B0008C8
:10007000591B00085D1B0008611B0008651B000878
:10008000691B00086D1B0008711B0008751B000828
:10009000791B00087D1B0008811B0008851B0008D8
:1000A000891B00088D1B0008911B0008951B000888
:1000B000991B00089D1B0008A11B0008A51B000838
:1000C000A91B0008AD1B0008B11B0008B51B0008E8
:1000D000B91B0008BD1B0008C11B0008C51B000898
:1000E000C91B0008CD1B0008D11B0008D51B000848
:1000F000D91B0008DD1B0008E11B0008E51B0008F8
:10010000E91B0008ED1B0008F11B0008F51B0008A7
:10011000F91B0008FD1B0008011C0008051C000855
:10012000091C00080D1C0008111C0008151C000803
:10013000191C00081D1C0008211C0008251C0008B3
:10014000291C00082D1C0008311C0008351C000863
:10015000391C00083D1C0008411C0008451C000813
:10016000491C00084D1C0008511C0008551C0008C3
:10017000591C00085D1C0008611C000800000000FC
:10018000651C00082DE9FC410400002C01D1012070
:10019000B3E12078C0073FD5DFF87005016811F0A2
:1001A0000C01042909D0006810F00C0008280ED1B9
:1001B000DFF85C050068400209D5DFF84C050068EF
:1001C000800329D56068002826D1012095E1606868
:1001D000DFF850150870606800280ED000F0BAFAF9
:1001E0000500DFF824050068800315D400F0B2FA9A
:1001F000401B6528F5D303207FE100F0ABFA050032
:10020000DFF804050068800306D500F0A3FA401B60
:100210006528F5D3032070E12078800756D5DFF8F4
:10022000EC04016811F00C0F09D0006810F00C000C
:10023000082818D1DFF8D8040068400213D4DFF88A
:10024000C8040168890704D5E168012901D00120AB
:1002500053E10168032231F0F801236913FA02F235
:100260001143016032E0E06800281CD00120DFF873
:10027000B814086000F06EFA0500DFF88C0401681D
:10028000890706D400F066FA401B0328F5D3032043
:1002900033E10168032231F0F801236913FA02F215
:1002A0001143016012E00020DFF87C14086000F0C8
:1002B00051FA0500DFF850040068800706D500F009
:1002C00049FA401B0328F5D3032016E120780007E4
:1002D00028D56069002812D00120DFF8501408608A
:1002E00000F038FA0500DFF82C040068800719D404
:1002F00000F030FA401B0328F5D30320FDE0002076
:10030000DFF82814086000F025FA0500DFF804047F
:100310000068800706D500F01DFA401B0328F5D3BE
:100320000320EAE02078400762D50026DFF8007459
:100330003868C0000CD400200090386850F080501D
:100340003860386810F08050009000980120060056
:10035000DFF8E083D8F8000050F48070C8F800009F
:10036000D8F80000C00513D4D8F8000050F480700D
:10037000C8F8000000F0EEF90500D8F80000C0054C
:1003800006D400F0E7F9401B0328F6D30320B4E0BD
:10039000DFF8A483A06888F80000A06800280FD0C8
:1003A00000F0D8F90500D8F80000800718D400F054
:1003B000D1F9401B41F289318842F4D303209CE0FB
:1003C00000F0C8F90500D8F80000800708D500F053
:1003D000C1F9401B41F289318842F4D303208CE0FB
:1003E0003000C0B2012803D1386830F08050386046
:1003F000A069002800F08080DFF81003006810F08A
:100400000C0008284FD0A069022839D1DFF82C83CE
:100410000020C8F8000000F09DF90600DFF8E8723F
:100420003868800106D500F095F9801B6528F5D362
:10043000032062E0DFF8D8120A68DFF80403024004
:10044000E0690243206A0243606A52EA8012E06A6D
:1004500052EA0062A06A4008401E52EA00420A6066
:100460000120C8F8000000F075F905003868800127
:1004700042D400F06FF9401B6528F7D303203CE01D
:100480000020DFF8B812086000F064F90500DFF81A
:100490007802006880012FD500F05CF9401B6528C8
:1004A000F5D3032029E0A069012801D1012024E02F
:1004B000DFF85C02016811F48000E269904219D112
:1004C00011F03F00226A904214D147F6C0700840F4
:1004D000626AB0EB821F0DD111F44030A26A52085B
:1004E000521EB0EB024F05D111F07060E26AB0EB22
:1004F000026F01D0012000E00020BDE8F6812DE967
:10050000F04104000D00002C01D1012099E0DFF83A
:100510003472386810F00F00A84207D23D70386876
:1005200010F00F00A84201D001208AE02078800757
:1005300019D52078400705D5DFF8D001016851F4BE
:10054000E05101602078000705D5DFF8C00101689F
:1005500051F460410160DFF8B4110A6832F0F00232
:10056000A06802430A602078C00737D56068012878
:1005700006D1DFF894010068800311D4012060E007
:100580006068022806D1DFF880010068800107D486
:10059000012056E05C480068800701D4012050E04B
:1005A000DFF86881D8F80010890889006068014385
:1005B000C8F8001000F0CEF80600D8F8000010F0DF
:1005C0000C006168B0EB810F08D000F0C3F8801B0D
:1005D00041F289318842F0D3032032E0386810F0CC
:1005E0000F00854207D23D70386810F00F00A84216
:1005F00001D0012025E02078400706D543490A684C
:1006000032F4E052E06802430A602078000707D520
:100610003E48016831F46041226951EAC20101603B
:1006200000F011F839490968474A11F0F001090949
:10063000515CC840394908603948006800F090F8BA
:100640000020BDE8F0812DE9F041002400250026BE
:1006500000272E48006810F00C00002804D0042861
:1006600004D0082804D031E02B4830E037482EE091
:10067000DFF89C80D8F8000010F03F000400D8F8A4
:10068000000040020CD5D8F80000C0F388102F49B4
:10069000A1FB00012200002300F088F805000BE018
:1006A000D8F80000C0F388101B49A1FB000122000C
:1006B000002300F07BF80500D8F80000C0F30140EB
:1006C000401C40000600B5FBF6F000E01248BDE813
:1006D000F08112480068704780B5FFF7FAFF0B49B8
:1006E00009681B4A11F4E051890A515CC84002BDF7
:1006F00080B5FFF7EEFF05490968154A11F460411E
:10070000490B515CC84002BD003802400838024025
:1007100004380240743802400024F4000400002031
:10072000000000200238024000004742800E47428D
:10073000403802400070004070380240600047427C
:100740000080BCF0003C0240E81A000800127A0069
:10075000201B000801480068704700BF58050020B2
:1007600010B504004FF47A700D490978B0FBF1F030
:100770000C490968B1FBF0F000F0B0F9002801D095
:1007800001200CE0102C09D2002221005FF0FF3084
:1007900000F08FF904480460002000E0012010BD43
:1007A000080000200400002000000020BBBBE1B1D5
:1007B000B2F5803F80F07E80022A1ED98C46B1FBC4
:1007C000F2F102FB11C31B0443EA1043B3FBF2FC3A
:1007D00002FB1C3380B240EA0343B3FBF2F002FB9E
:1007E000103240EA0C4000237047022A05D98446A3
:1007F000B0FBF2F002FB10C270474AB105D100F025
:10080000010249085FEA3000704700220023704768
:1008100000F078B90B0002000021002070479042E0
:1008200071EB030CF6D3B3F5803F2FD2F0B5B3FADA
:1008300083F7B1FA81F4A7F10F0E3D1B5340CEF1BF
:10084000200602FA0EF2F3415340B5F10F0746D8E5
:100850000F3C2C444140C4F12006A040F1414140EE
:10086000B1FBF3F603FB1611A2FB0645001BA941E1
:1008700002D2761E8018594180EA010221FA0EF355
:1008800062FA0EF200215A403046F0BD30B4B1FB9E
:10089000F3FC03FB1C11A2FB0C45001BA94103D276
:1008A000ACF1010C8018594130BC02460B46604641
:1008B00000217047B2F1807F65D3F0B5B2FA82F7BC
:1008C000B1FA81F4C7F10F063D1B22FA06F307F1D6
:1008D000110EF24120355A40B5F10F07B8D9414009
:1008E000C4F12006A040F1414140B1FBF3FC03FB01
:1008F0001C11A2FB0C45001BA94103D2BCF1010C49
:10090000801859410F2F12D30F3FC90341EA5041BC
:10091000B1FBF3F603FB1611A2FB0645D4EBC03086
:10092000A94102D2761E8018594146EACC3C07B351
:100930004140C7F12006B840F1414140B1FBF3F618
:1009400003FB1611A2FB0645001BA94102D2761E2D
:100950008018594180EA010221FA0EF3C7F1200400
:1009600062FA0EF20CFA07F05A402CFA04F1304306
:10097000F0BD80EA010221FA0EF3002162FA0EF2C4
:1009800060465A40F0BD8C46B1FBF2F102FB11C348
:100990001B0243EA1063B3FBF2FC02FB1C331B0295
:1009A0004CEA002043EA1063B3FBF2FC02FB1C3369
:1009B0001B024CEA002043EA1063B3FBF2FC02FB8B
:1009C0001C331B024CEA002043EA1063B3FBF2FC29
:1009D00002FB1C324CEA00200023704710B410F0D8
:1009E0000703DFF8044122684FF6FF010A40DFF8F1
:1009F000FC1051EA03210A43226010BC7047DFF863
:100A0000E8000068C0F30220704710B4020052B240
:100A1000002A05D40A01364B040064B21A5508E0D6
:100A20000A01344B040064B214F00F04234403F8A9
:100A3000042C10BC704770B4030013F00704D4F109
:100A40000700052801D3042001E0D4F10700251D8B
:100A5000072D01D2002500E0E51E012616FA00F060
:100A6000401E0140A94016FA05F56D1E2A401143AB
:100A7000080070BC704710B50400601EB0F1807FA4
:100A800001D301200EE0601E1B4908600F215FF0BA
:100A9000FF30FFF7BAFF0020184908600720184907
:100AA0000860002010BD10B504002000FFF796FF7D
:100AB00010BD2DE9F04104000D0016000027FFF7DE
:100AC0009EFF8046320029004046FFF7B4FF010038
:100AD000200040B2FFF799FFBDE8F08110B5040097
:100AE0002000FFF7C8FF10BD0CED00E00000FA0584
:100AF00000E400E018ED00E014E000E018E000E0A1
:100B000010E000E0704730B4002513E050F8042BEB
:100B1000D30744BFA9F101039A18091F042942F819
:100B2000045BFAD213468C0744BF15809B1CC9078F
:100B300048BF1D7050F8041B0029E7D130BC704736
:100B40000EB418B504000898012817D1A06B30F432
:100B50008030A063E168DFF86C030140E160E06889
:100B600030F44010E0600F98012803D1E06850F4A1
:100B70008010E060200000F0C1F90AE0E06850F069
:100B80004000E060200000F0B9F9A16B51F4803121
:100B9000A1630599012907D1A16851F00601A1605F
:100BA000A16851F02001A160C0B212BC5DF810FB39
:100BB000010088684008400088600020704770B5D8
:100BC00004000D000026E06830F0C040E06028001E
:100BD000C0B201280FD1E06850F00050E060012061
:100BE00000F0B2F9761C200000F082F9012818D03C
:100BF000322EF4D315E02800C0B200280FD1E068EF
:100C000050F08040E060012000F09EF9761C20004A
:100C100000F06EF9002804D0322EF4D301E0012058
:100C200004E0322E01D1012000E0002070BD0EB49E
:100C3000F0B504000025260000270F2F06D2002063
:100C400004EB8701C1F804017F1CF6E70F98002828
:100C500014D116F50060406850F0020016F50061EE
:100C60004860A06B50F40010A063A06B30F400202B
:100C7000A063A06B30F48020A06307E0A06B30F489
:100C80000010A063A06B50F40020A063002016F5B4
:100C9000606108600A9801280CD10898002804D1E6
:100CA0000021200000F0FFF808E00121200000F002
:100CB000FAF803E00321200000F0F5F810212000ED
:100CC00000F0A9F8002801D001200500200000F064
:100CD000C7F8002801D001200500002016F50061AA
:100CE0000861002016F500614861002016F50061DA
:100CF000C8610020059988422DD216EB401111F5EC
:100D000010610968002911D5002807D15FF0006142
:100D100016EB401212F5106211600DE05FF0904189
:100D200016EB401212F51062116005E0002116EB7F
:100D3000401212F51062116016EB401111F51061AE
:100D400000220A6116EB401111F510614FF67F3257
:100D50008A60401CCEE70021059881422DD216EB17
:100D6000411010F530600068002811D5002907D126
:100D70005FF0006016EB411212F5306210600DE07A
:100D80005FF0904016EB411212F53062106005E002
:100D9000002016EB411212F53062106016EB411084
:100DA00010F530600022026116EB411010F5306042
:100DB0004FF67F328260491CCEE716F5006000696D
:100DC00030F4807016F5006210610020A0617FF0A1
:100DD000804060610798002803D1A06950F010009E
:100DE000A061A269DFF810010243A2610B980028FC
:100DF00003D0A06950F00800A0610F98012805D128
:100E0000A06940F0804050F00400A0612800C0B20A
:100E1000F0BC5DF810FB81B002000020009000984B
:100E2000401C0090DFF81C01009B834201D303208B
:100E300014E01369002BF2D5002300938B0153F0CB
:100E400020031361009B5B1C0093009B834201D332
:100E5000032003E013699B06F4D4002001B070471F
:100E600081B00100002000900098401C0090DFF845
:100E7000D400009A824201D3032012E00A69002ABA
:100E8000F2D50022009210220A61009A521C0092B0
:100E9000009A824201D3032003E00A69D206F4D407
:100EA000002001B0704710B40200130013F5006079
:100EB00004680800C0B2044313F500600460002019
:100EC00010BC7047BFFFBDFF01000A0012F5606053
:100ED00000688008800012F56063186012F50060F9
:100EE000406850F0020012F500635860002070471F
:100EF000406910F00100704700383C8081B001006B
:100F0000002000900098401C00900E48009A8242F9
:100F100001D3032014E00A69002AF3D500220092CD
:100F20000A6952F001020A61009A521C0092009A6A
:100F3000824201D3032003E00A69D207F4D40020DF
:100F400001B07047410D030031B5FFF703FC040009
:100F5000009D15F1010F02D0044800784519FFF7F4
:100F6000F9FB001BA842FAD331BD00BF08000020E6
:100F7000F8B4030000250868E840002800F0F0807D
:100F800001260F6816FA05F007403A00002A00F023
:100F9000E580087910F00300012804D0087910F0EA
:100FA000030002281DD19F685FF0030C2800C0B227
:100FB00040001CFA00FC37EA0C07D1F80CC02800EE
:100FC000C0B240001CFA00FC5CEA07079F6058684A
:100FD000AE40B0434E68C6F30016AE403043040046
:100FE0005C60087910F0030003280ED0DE68032748
:100FF0002800C0B240008740BE438F682800C0B2BE
:10100000400087403E433400DC60087910F0030064
:10101000022818D12800C00803EB8000066A0F27B9
:1010200015F00700C0B280008740BE430F6915F07D
:101030000700C0B2800087403E4334002800C0084B
:1010400003EB800004621E6803272800C0B2400042
:101050008740BE430F7917F003072800C0B2400055
:1010600087403E4334001C60486810F4403F75D010
:1010700000200090DFF80801066856F480460660FC
:10108000006810F4804000900098DFF8F8702800A5
:10109000800857F820605FF00F0C15F00300C0B215
:1010A00080001CFA00FC36EA0C063748834201D166
:1010B000002428E03548834201D1012423E034484C
:1010C000834201D102241EE03248834201D103242D
:1010D00019E03148834201D1042414E02F488342AF
:1010E00001D105240FE02E48834201D106240AE0F5
:1010F0002C48834201D1072405E02B48834201D1CB
:10110000082400E00924E4B215F00300C0B2800016
:10111000844026432800800847F82060234C20683C
:1011200090434F68FF0200D510432060204E346882
:1011300094434F68BF0200D5144334601D4E30689D
:1011400090434F68BF0300D5104330601A4E346897
:1011500094434F68FF0300D5144334606D1C0AE7C5
:10116000F1BC70471300DBB2002B03D00B009BB225
:10117000836103E00B009BB21B0483617047000096
:101180004438024008380140000002400004024098
:1011900000080240000C024000100240001402400F
:1011A00000180240001C024000200240083C0140A0
:1011B0000C3C0140043C0140003C014010B50400DF
:1011C000002C01D1012035E0A0690028FFD194F85E
:1011D0004100002805D1002084F84000200000F0E4
:1011E00005F9242084F841002068C06830F40050DC
:1011F0002168C860200000F01EF82068006930F403
:101200009040216808612068406930F02A00216818
:1012100048612068C06850F400502168C860002010
:101220006064202084F84100202084F842000020DF
:101230006063002010BDF8B504002068016931F436
:101240004051E068014320680161A56820690543B9
:1012500060690543E06905432068C168534801405F
:1012600029432068C1602068416931F44071A06958
:1012700001432068416120684D49884203D02068BD
:101280004C49884202D1FFF733FA01E0FFF724FA14
:10129000E169B1F5004F44D16421192202FB00F34A
:1012A00066687600B3FBF6F36426B3FBF6F302FB45
:1012B00000F667687F00B6FBF7F602FB00F7D4F88C
:1012C00004C05FEA4C0CB7FBFCF75FF0640CB7FBA3
:1012D000FCF701FB1766F60032366427B6FBF7F61B
:1012E000760016F4F87616EB031602FB00F3676837
:1012F0007F00B3FBF7F302FB00F267687F00B2FBED
:10130000F7F26427B2FBF7F201FB1231C900323168
:101310006422B1FBF2F111F007018E1921688E6091
:1013200042E06421192202FB00F36668B600B3FBB9
:10133000F6F36426B3FBF6F302FB00F66768BF0022
:10134000B6FBF7F602FB00F7D4F804C05FEA8C0C9A
:10135000B7FBFCF75FF0640CB7FBFCF701FB17660B
:10136000360132366427B6FBF7F616F0F00616EBB8
:10137000031602FB00F36768BF00B3FBF7F302FB41
:1013800000F26768BF00B2FBF7F26427B2FBF7F226
:1013900001FB1231090132316422B1FBF2F111F08B
:1013A0000F018E1921688E60F1BD0000F369FFFF07
:1013B000001001400014014080B527482749016012
:1013C0005FF4E1314160002181600021C1600021B2
:1013D00001610C214161002181610021C161FFF7A0
:1013E000EDFE002801D000F092F801BD10B586B0E6
:1013F00004001422002101A800F08BF8206817498E
:10140000884226D1002000901548016851F48021BF
:101410000160006810F48020009000980020009087
:101420001048016851F008010160006810F00800E0
:10143000009000984FF4407001900220029000202C
:101440000390032004900720059001A90648FFF7A8
:101450008FFD06B010BD00001005002000480040C0
:101460004038024030380240000C024010B500F015
:1014700071F800F011F800F087F8FFF79DFF00F019
:1014800013F90024012280210248FFF76BFE641C3F
:10149000FDE700000004024000B591B030220021B9
:1014A00005A800F036F814220021684600F031F853
:1014B00002200590012008901020099002200B9036
:1014C00000200C900D200D90C3200E9002200F9054
:1014D0000520109005A8FEF755FE002801D000F069
:1014E00016F80F20009002200190002002904FF487
:1014F000A05003904FF48050049003216846FEF7FB
:10150000FEFF002801D000F002F811B000BD72B655
:10151000FEE710B5044610460A460146204600F094
:101520002FF9204610BD30B40EE002684368024433
:101530000830DC0744BFA9F10104E31852F8045B4A
:1015400043F8045B091FF9D150F8041B0029ECD1C2
:1015500030BC704780B50B48016851F400710160E0
:10156000016851F480610160016851F4807101608B
:101570000320FFF798FA0020FFF7F2F800F034F9A3
:10158000002002BD003C024070B586B0142200214C
:101590006846FFF7BEFF002005903F48016851F004
:1015A00004010160016811F0040105910599002111
:1015B0000591016851F080010160016811F080011E
:1015C0000591059900210591016851F00101016023
:1015D000016811F00101059105990021059101684B
:1015E00051F002010160016811F0020105910599B5
:1015F00000210591016851F008010160016811F0B6
:1016000008010591059900210591016851F04001FB
:101610000160006810F040000590059844F28106D2
:101620001E4C002231002000FFF79CFD1C4D0022C3
:1016300040212800FFF796FD4FF4005000905FF422
:10164000881001900020029069461648FFF790FC30
:10165000009601200190002002900020039069462E
:101660002000FFF785FC4020009001200190002021
:1016700002900020039069462800FFF779FC802043
:101680000090002001900020029069462800FFF79A
:101690006FFC06B070BD00BF30380240000402404D
:1016A000001802400008024080B530485FF0A041B9
:1016B000016004214160022101610021C160022119
:1016C00081610121C161002101620121C16200210A
:1016D000016300F0A9F8002801D0FFF718FF01BD51
:1016E00038B586B004001422002101A8FFF711FFCD
:1016F0002068B0F1A04F37D1002000901C4801684D
:1017000051F001010160006810F0010000900098A4
:101710004FF4E85001900220029000200390032033
:1017200004900A200590134D01A92800FFF720FC22
:101730004FF400700190002002900020039001A956
:101740002800FFF715FC0C48016851F0800101608A
:10175000002000900948016851F480410160006850
:1017600010F480400090009807B030BD0C000020BD
:101770003038024000000240343802404438024011
:1017800062F30F2262F31F42401810F0030308D0E7
:10179000C91A1FD3DB0748BF00F8012D28BF20F866
:1017A000022D130030B414461546103928BF20E925
:1017B0003C00FAD8490728BF20E90C0048BF40F890
:1017C000042D890028BF20F8022D48BF00F8012D04
:1017D00030BC7047C91818BF00F8012DCB0728BFCF
:1017E00000F8012D7047000081B0002000900C48E7
:1017F000016851F480410160006810F4804000905D
:101800000098002000900748016851F08051016065
:10181000006810F080500090009801B0704700BF41
:10182000443802404038024070B58AB00400002CB1
:1018300001D10120B0E0266894F8BD04002805D14C
:10184000002084F8BC042000FFF74AFF032084F83E
:10185000BD04F06BC00501D40020E0602068FFF7F4
:10186000A7F9211D83B06846342200F097F80EBC1A
:101870002068FFF765F9002804D0022084F8BD0431
:10188000012089E000212068FFF799F9002001007C
:10189000C9B26268914231D224210200D2B24A43D5
:1018A0002244012382F83D300200D2B24A4322444E
:1018B00082F83C000200D2B24A4322440300DBB269
:1018C000A2F856300200D2B24A432244002382F8E2
:1018D00040300200D2B24A43224400235364020043
:1018E000D2B24A432244002393640200D2B201FBE5
:1018F00002F121440022CA64401CC8E700252800E8
:10190000C0B2616888422CD224202900C9B2414368
:101910002144002281F87D222900C9B2414321449B
:1019200081F87C522900C9B241432144002281F848
:1019300080222900C9B2414321440022C1F88422F7
:101940002900C9B2414321440022C1F8882229005C
:10195000C9B200FB01F020440021C0F88C126D1CBC
:10196000CDE7211D83B06846342200F017F80EBC85
:101970002068FFF75CF9002804D0022084F8BD0439
:10198000012009E0002084F83800012084F8BD041B
:101990002068FFF799FA00200AB070BD103A07D30B
:1019A00030B4B1E83810103AA0E83810F9D230BCA1
:1019B000530724BFB1E80810A0E8081044BF51F84D
:1019C000043B40F8043BD20724BF31F8022B20F837
:1019D000022B44BF0B7803707047121F17D35B00B4
:1019E00009D151F8043B20F8023B1B0C121F20F8D0
:1019F000023BF6D20BE051F8043B00F8013B1B0A16
:101A000020F8023B1B0C121F00F8013BF3D238BF39
:101A1000121D521E24BF11F8013B00F8013BF8D8FB
:101A20007047000010B5074979441831064C7C44D2
:101A3000163404E00A68081D114488470146A14293
:101A4000F8D110BD0800000028000000BBF0FFFF27
:101A5000500500000C00002000000000CBFAFFFF42
:101A60000C000000B000000000000020000000009A
:101A700000F00DF8002801D0FFF7D4FFAFF300808D
:101A80000020AFF30080FFF7F1FC00F002F8012026
:101A9000704700F001B800000746384600F002F831
:101AA000FBE7000080B5AFF30080024A1100182068
:101AB000ABBEFBE72600020003490A680348007832
:101AC00082180A60704700BF5805002008000020F7
:101AD000FEE7FEE7FEE7FEE7FEE770477047704768
:101AE00080B5FFF7E9FF01BD000000000000000025
:101AF000010203040607080901488047014800471E
:101B0000691C0008091B0008AFF30080AFF30080D8
:101B1000FFF7AEFF100000000024F40001000000F9
:101B20000000000001020304FFF7FEBFFFF7FEBF45
:101B3000FFF7FEBFFFF7FEBFFFF7FEBFFFF7FEBFD9
:101B4000FFF7FEBFFFF7FEBFFFF7FEBFFFF7FEBFC9
:101B5000FFF7FEBFFFF7FEBFFFF7FEBFFFF7FEBFB9
:101B6000FFF7FEBFFFF7FEBFFFF7FEBFFFF7FEBFA9
:101B7000FFF7FEBFFFF7FEBFFFF7FEBFFFF7FEBF99
:101B8000FFF7FEBFFFF7FEBFFFF7FEBFFFF7FEBF89
:101B9000FFF7FEBFFFF7FEBFFFF7FEBFFFF7FEBF79
:101BA000FFF7FEBFFFF7FEBFFFF7FEBFFFF7FEBF69
:101BB000FFF7FEBFFFF7FEBFFFF7FEBFFFF7FEBF59
:101BC000FFF7FEBFFFF7FEBFFFF7FEBFFFF7FEBF49
:101BD000FFF7FEBFFFF7FEBFFFF7FEBFFFF7FEBF39
:101BE000FFF7FEBFFFF7FEBFFFF7FEBFFFF7FEBF29
:101BF000FFF7FEBFFFF7FEBFFFF7FEBFFFF7FEBF19
:101C0000FFF7FEBFFFF7FEBFFFF7FEBFFFF7FEBF08
:101C1000FFF7FEBFFFF7FEBFFFF7FEBFFFF7FEBFF8
:101C2000FFF7FEBFFFF7FEBFFFF7FEBFFFF7FEBFE8
:101C3000FFF7FEBFFFF7FEBFFFF7FEBFFFF7FEBFD8
:101C4000FFF7FEBFFFF7FEBFFFF7FEBFFFF7FEBFC8
:101C5000FFF7FEBFFFF7FEBFFFF7FEBFFFF7FEBFB8
:0A1C6000FFF7FEBFFFF7FEBF70475D
:0400000508001B09CB
:00000001FF
